{
  "_format": "hh-sol-artifact-1",
  "contractName": "Djob",
  "sourceName": "contracts/Djob.sol",
  "abi": [
    {
      "inputs": [
        {
          "internalType": "uint256",
          "name": "jid",
          "type": "uint256"
        }
      ],
      "name": "Apply",
      "outputs": [],
      "stateMutability": "nonpayable",
      "type": "function"
    },
    {
      "inputs": [
        {
          "internalType": "uint256",
          "name": "",
          "type": "uint256"
        }
      ],
      "name": "Emps",
      "outputs": [
        {
          "internalType": "address",
          "name": "employee",
          "type": "address"
        },
        {
          "internalType": "string",
          "name": "name",
          "type": "string"
        },
        {
          "internalType": "uint256",
          "name": "age",
          "type": "uint256"
        },
        {
          "internalType": "string",
          "name": "role",
          "type": "string"
        },
        {
          "internalType": "uint256",
          "name": "yearsofexperiance",
          "type": "uint256"
        },
        {
          "internalType": "string",
          "name": "skills",
          "type": "string"
        }
      ],
      "stateMutability": "view",
      "type": "function"
    },
    {
      "inputs": [
        {
          "internalType": "uint256",
          "name": "jid",
          "type": "uint256"
        },
        {
          "internalType": "uint256",
          "name": "eid",
          "type": "uint256"
        }
      ],
      "name": "Hire",
      "outputs": [],
      "stateMutability": "nonpayable",
      "type": "function"
    },
    {
      "inputs": [
        {
          "internalType": "uint256",
          "name": "",
          "type": "uint256"
        }
      ],
      "name": "Jobs",
      "outputs": [
        {
          "internalType": "address",
          "name": "employer",
          "type": "address"
        },
        {
          "internalType": "string",
          "name": "jname",
          "type": "string"
        },
        {
          "internalType": "string",
          "name": "jobDesc",
          "type": "string"
        },
        {
          "internalType": "uint256",
          "name": "budget",
          "type": "uint256"
        },
        {
          "internalType": "string",
          "name": "jlocation",
          "type": "string"
        },
        {
          "internalType": "string",
          "name": "jmode",
          "type": "string"
        }
      ],
      "stateMutability": "view",
      "type": "function"
    },
    {
      "inputs": [
        {
          "internalType": "address",
          "name": "",
          "type": "address"
        },
        {
          "internalType": "address",
          "name": "",
          "type": "address"
        }
      ],
      "name": "applied",
      "outputs": [
        {
          "internalType": "uint256",
          "name": "",
          "type": "uint256"
        }
      ],
      "stateMutability": "view",
      "type": "function"
    },
    {
      "inputs": [
        {
          "internalType": "string",
          "name": "name",
          "type": "string"
        },
        {
          "internalType": "uint256",
          "name": "age",
          "type": "uint256"
        },
        {
          "internalType": "string",
          "name": "role",
          "type": "string"
        },
        {
          "internalType": "uint256",
          "name": "exp",
          "type": "uint256"
        },
        {
          "internalType": "string",
          "name": "skill",
          "type": "string"
        }
      ],
      "name": "createAcc",
      "outputs": [],
      "stateMutability": "nonpayable",
      "type": "function"
    },
    {
      "inputs": [
        {
          "internalType": "address",
          "name": "",
          "type": "address"
        }
      ],
      "name": "empdetails",
      "outputs": [
        {
          "internalType": "address",
          "name": "employee",
          "type": "address"
        },
        {
          "internalType": "string",
          "name": "name",
          "type": "string"
        },
        {
          "internalType": "uint256",
          "name": "age",
          "type": "uint256"
        },
        {
          "internalType": "string",
          "name": "role",
          "type": "string"
        },
        {
          "internalType": "uint256",
          "name": "yearsofexperiance",
          "type": "uint256"
        },
        {
          "internalType": "string",
          "name": "skills",
          "type": "string"
        }
      ],
      "stateMutability": "view",
      "type": "function"
    },
    {
      "inputs": [
        {
          "internalType": "uint256",
          "name": "",
          "type": "uint256"
        }
      ],
      "name": "empssss",
      "outputs": [
        {
          "internalType": "address payable",
          "name": "",
          "type": "address"
        }
      ],
      "stateMutability": "view",
      "type": "function"
    },
    {
      "inputs": [],
      "name": "getEmps",
      "outputs": [
        {
          "components": [
            {
              "internalType": "address",
              "name": "employee",
              "type": "address"
            },
            {
              "internalType": "string",
              "name": "name",
              "type": "string"
            },
            {
              "internalType": "uint256",
              "name": "age",
              "type": "uint256"
            },
            {
              "internalType": "string",
              "name": "role",
              "type": "string"
            },
            {
              "internalType": "uint256",
              "name": "yearsofexperiance",
              "type": "uint256"
            },
            {
              "internalType": "string",
              "name": "skills",
              "type": "string"
            }
          ],
          "internalType": "struct Djob.emp[]",
          "name": "",
          "type": "tuple[]"
        }
      ],
      "stateMutability": "view",
      "type": "function"
    },
    {
      "inputs": [],
      "name": "getJobs",
      "outputs": [
        {
          "components": [
            {
              "internalType": "address",
              "name": "employer",
              "type": "address"
            },
            {
              "internalType": "string",
              "name": "jname",
              "type": "string"
            },
            {
              "internalType": "string",
              "name": "jobDesc",
              "type": "string"
            },
            {
              "internalType": "uint256",
              "name": "budget",
              "type": "uint256"
            },
            {
              "internalType": "string",
              "name": "jlocation",
              "type": "string"
            },
            {
              "internalType": "string",
              "name": "jmode",
              "type": "string"
            }
          ],
          "internalType": "struct Djob.job[]",
          "name": "",
          "type": "tuple[]"
        }
      ],
      "stateMutability": "view",
      "type": "function"
    },
    {
      "inputs": [],
      "name": "getbal",
      "outputs": [
        {
          "internalType": "uint256",
          "name": "",
          "type": "uint256"
        }
      ],
      "stateMutability": "view",
      "type": "function"
    },
    {
      "inputs": [],
      "name": "getx",
      "outputs": [
        {
          "internalType": "uint256",
          "name": "",
          "type": "uint256"
        }
      ],
      "stateMutability": "view",
      "type": "function"
    },
    {
      "inputs": [
        {
          "internalType": "address",
          "name": "",
          "type": "address"
        },
        {
          "internalType": "uint256",
          "name": "",
          "type": "uint256"
        }
      ],
      "name": "hire",
      "outputs": [
        {
          "internalType": "uint256",
          "name": "",
          "type": "uint256"
        }
      ],
      "stateMutability": "view",
      "type": "function"
    },
    {
      "inputs": [
        {
          "internalType": "address",
          "name": "",
          "type": "address"
        },
        {
          "internalType": "uint256",
          "name": "",
          "type": "uint256"
        }
      ],
      "name": "jobdetails",
      "outputs": [
        {
          "internalType": "address",
          "name": "employer",
          "type": "address"
        },
        {
          "internalType": "string",
          "name": "jname",
          "type": "string"
        },
        {
          "internalType": "string",
          "name": "jobDesc",
          "type": "string"
        },
        {
          "internalType": "uint256",
          "name": "budget",
          "type": "uint256"
        },
        {
          "internalType": "string",
          "name": "jlocation",
          "type": "string"
        },
        {
          "internalType": "string",
          "name": "jmode",
          "type": "string"
        }
      ],
      "stateMutability": "view",
      "type": "function"
    },
    {
      "inputs": [
        {
          "internalType": "uint256",
          "name": "eid",
          "type": "uint256"
        }
      ],
      "name": "pay",
      "outputs": [],
      "stateMutability": "payable",
      "type": "function"
    },
    {
      "inputs": [
        {
          "internalType": "string",
          "name": "name",
          "type": "string"
        },
        {
          "internalType": "string",
          "name": "jdesc",
          "type": "string"
        },
        {
          "internalType": "uint256",
          "name": "budjet",
          "type": "uint256"
        },
        {
          "internalType": "string",
          "name": "jloc",
          "type": "string"
        },
        {
          "internalType": "string",
          "name": "jmode",
          "type": "string"
        }
      ],
      "name": "postjob",
      "outputs": [],
      "stateMutability": "nonpayable",
      "type": "function"
    },
    {
      "inputs": [],
      "name": "x",
      "outputs": [
        {
          "internalType": "uint256",
          "name": "",
          "type": "uint256"
        }
      ],
      "stateMutability": "view",
      "type": "function"
    }
  ],
  "bytecode": "0x6080604052600a600b5534801561001557600080fd5b50612a0e806100256000396000f3fe6080604052600436106100fe5760003560e01c80638184539311610095578063c290d69111610064578063c290d6911461036d578063e276c79914610389578063f23ba8e6146103b4578063f8c98067146103f1578063ff3f56661461041c576100fe565b80638184539314610297578063b0fa934a146102d9578063b53901831461031b578063baca711214610344576100fe565b80632fc96119116100d15780632fc96119146101d85780634ca1ac48146102015780635dc9c7a71461024357806368581ebd1461026c576100fe565b80630c55699c146101035780631b3f4e071461012e5780631df39ba4146101595780632cc772f014610196575b600080fd5b34801561010f57600080fd5b50610118610459565b6040516101259190611c5f565b60405180910390f35b34801561013a57600080fd5b5061014361045f565b6040516101509190611c5f565b60405180910390f35b34801561016557600080fd5b50610180600480360381019061017b9190611cba565b610467565b60405161018d9190611d28565b60405180910390f35b3480156101a257600080fd5b506101bd60048036038101906101b89190611cba565b6104a6565b6040516101cf96959493929190611df4565b60405180910390f35b3480156101e457600080fd5b506101ff60048036038101906101fa9190611cba565b610722565b005b34801561020d57600080fd5b5061022860048036038101906102239190611e9d565b6107e8565b60405161023a96959493929190611eca565b60405180910390f35b34801561024f57600080fd5b5061026a60048036038101906102659190611f40565b6109dc565b005b34801561027857600080fd5b50610281610a35565b60405161028e9190612148565b60405180910390f35b3480156102a357600080fd5b506102be60048036038101906102b9919061216a565b610d3c565b6040516102d096959493929190611df4565b60405180910390f35b3480156102e557600080fd5b5061030060048036038101906102fb9190611cba565b610fc5565b60405161031296959493929190611eca565b60405180910390f35b34801561032757600080fd5b50610342600480360381019061033d91906122df565b6111b9565b005b34801561035057600080fd5b5061036b600480360381019061036691906123ae565b611562565b005b61038760048036038101906103829190611cba565b6118df565b005b34801561039557600080fd5b5061039e611973565b6040516103ab9190611c5f565b60405180910390f35b3480156103c057600080fd5b506103db60048036038101906103d6919061216a565b61197d565b6040516103e89190611c5f565b60405180910390f35b3480156103fd57600080fd5b506104066119a2565b60405161041391906125f2565b60405180910390f35b34801561042857600080fd5b50610443600480360381019061043e9190612614565b611c21565b6040516104509190611c5f565b60405180910390f35b600b5481565b600047905090565b6000818154811061047757600080fd5b906000526020600020016000915054906101000a900473ffffffffffffffffffffffffffffffffffffffff1681565b60036020528060005260406000206000915090508060000160009054906101000a900473ffffffffffffffffffffffffffffffffffffffff16908060010180546104ef90612683565b80601f016020809104026020016040519081016040528092919081815260200182805461051b90612683565b80156105685780601f1061053d57610100808354040283529160200191610568565b820191906000526020600020905b81548152906001019060200180831161054b57829003601f168201915b50505050509080600201805461057d90612683565b80601f01602080910402602001604051908101604052809291908181526020018280546105a990612683565b80156105f65780601f106105cb576101008083540402835291602001916105f6565b820191906000526020600020905b8154815290600101906020018083116105d957829003601f168201915b50505050509080600301549080600401805461061190612683565b80601f016020809104026020016040519081016040528092919081815260200182805461063d90612683565b801561068a5780601f1061065f5761010080835404028352916020019161068a565b820191906000526020600020905b81548152906001019060200180831161066d57829003601f168201915b50505050509080600501805461069f90612683565b80601f01602080910402602001604051908101604052809291908181526020018280546106cb90612683565b80156107185780601f106106ed57610100808354040283529160200191610718565b820191906000526020600020905b8154815290600101906020018083116106fb57829003601f168201915b5050505050905086565b600060036000838152602001908152602001600020905060008160000160009054906101000a900473ffffffffffffffffffffffffffffffffffffffff16905082600560003373ffffffffffffffffffffffffffffffffffffffff1673ffffffffffffffffffffffffffffffffffffffff16815260200190815260200160002060008373ffffffffffffffffffffffffffffffffffffffff1673ffffffffffffffffffffffffffffffffffffffff16815260200190815260200160002081905550505050565b600a6020528060005260406000206000915090508060000160009054906101000a900473ffffffffffffffffffffffffffffffffffffffff169080600101805461083190612683565b80601f016020809104026020016040519081016040528092919081815260200182805461085d90612683565b80156108aa5780601f1061087f576101008083540402835291602001916108aa565b820191906000526020600020905b81548152906001019060200180831161088d57829003601f168201915b5050505050908060020154908060030180546108c590612683565b80601f01602080910402602001604051908101604052809291908181526020018280546108f190612683565b801561093e5780601f106109135761010080835404028352916020019161093e565b820191906000526020600020905b81548152906001019060200180831161092157829003601f168201915b50505050509080600401549080600501805461095990612683565b80601f016020809104026020016040519081016040528092919081815260200182805461098590612683565b80156109d25780601f106109a7576101008083540402835291602001916109d2565b820191906000526020600020905b8154815290600101906020018083116109b557829003601f168201915b5050505050905086565b80600660003373ffffffffffffffffffffffffffffffffffffffff1673ffffffffffffffffffffffffffffffffffffffff1681526020019081526020016000206000848152602001908152602001600020819055505050565b60606001805480602002602001604051908101604052809291908181526020016000905b82821015610d3357838290600052602060002090600602016040518060c00160405290816000820160009054906101000a900473ffffffffffffffffffffffffffffffffffffffff1673ffffffffffffffffffffffffffffffffffffffff1673ffffffffffffffffffffffffffffffffffffffff168152602001600182018054610ae290612683565b80601f0160208091040260200160405190810160405280929190818152602001828054610b0e90612683565b8015610b5b5780601f10610b3057610100808354040283529160200191610b5b565b820191906000526020600020905b815481529060010190602001808311610b3e57829003601f168201915b50505050508152602001600282018054610b7490612683565b80601f0160208091040260200160405190810160405280929190818152602001828054610ba090612683565b8015610bed5780601f10610bc257610100808354040283529160200191610bed565b820191906000526020600020905b815481529060010190602001808311610bd057829003601f168201915b5050505050815260200160038201548152602001600482018054610c1090612683565b80601f0160208091040260200160405190810160405280929190818152602001828054610c3c90612683565b8015610c895780601f10610c5e57610100808354040283529160200191610c89565b820191906000526020600020905b815481529060010190602001808311610c6c57829003601f168201915b50505050508152602001600582018054610ca290612683565b80601f0160208091040260200160405190810160405280929190818152602001828054610cce90612683565b8015610d1b5780601f10610cf057610100808354040283529160200191610d1b565b820191906000526020600020905b815481529060010190602001808311610cfe57829003601f168201915b50505050508152505081526020019060010190610a59565b50505050905090565b6009602052816000526040600020602052806000526040600020600091509150508060000160009054906101000a900473ffffffffffffffffffffffffffffffffffffffff1690806001018054610d9290612683565b80601f0160208091040260200160405190810160405280929190818152602001828054610dbe90612683565b8015610e0b5780601f10610de057610100808354040283529160200191610e0b565b820191906000526020600020905b815481529060010190602001808311610dee57829003601f168201915b505050505090806002018054610e2090612683565b80601f0160208091040260200160405190810160405280929190818152602001828054610e4c90612683565b8015610e995780601f10610e6e57610100808354040283529160200191610e99565b820191906000526020600020905b815481529060010190602001808311610e7c57829003601f168201915b505050505090806003015490806004018054610eb490612683565b80601f0160208091040260200160405190810160405280929190818152602001828054610ee090612683565b8015610f2d5780601f10610f0257610100808354040283529160200191610f2d565b820191906000526020600020905b815481529060010190602001808311610f1057829003601f168201915b505050505090806005018054610f4290612683565b80601f0160208091040260200160405190810160405280929190818152602001828054610f6e90612683565b8015610fbb5780601f10610f9057610100808354040283529160200191610fbb565b820191906000526020600020905b815481529060010190602001808311610f9e57829003601f168201915b5050505050905086565b60046020528060005260406000206000915090508060000160009054906101000a900473ffffffffffffffffffffffffffffffffffffffff169080600101805461100e90612683565b80601f016020809104026020016040519081016040528092919081815260200182805461103a90612683565b80156110875780601f1061105c57610100808354040283529160200191611087565b820191906000526020600020905b81548152906001019060200180831161106a57829003601f168201915b5050505050908060020154908060030180546110a290612683565b80601f01602080910402602001604051908101604052809291908181526020018280546110ce90612683565b801561111b5780601f106110f05761010080835404028352916020019161111b565b820191906000526020600020905b8154815290600101906020018083116110fe57829003601f168201915b50505050509080600401549080600501805461113690612683565b80601f016020809104026020016040519081016040528092919081815260200182805461116290612683565b80156111af5780601f10611184576101008083540402835291602001916111af565b820191906000526020600020905b81548152906001019060200180831161119257829003601f168201915b5050505050905086565b6040518060c001604052803373ffffffffffffffffffffffffffffffffffffffff1681526020018681526020018581526020018481526020018381526020018281525060046000600854815260200190815260200160002060008201518160000160006101000a81548173ffffffffffffffffffffffffffffffffffffffff021916908373ffffffffffffffffffffffffffffffffffffffff160217905550602082015181600101908161126d9190612860565b5060408201518160020155606082015181600301908161128d9190612860565b506080820151816004015560a08201518160050190816112ad9190612860565b50905050600860008154809291906112c490612961565b91905055506000339080600181540180825580915050600190039060005260206000200160009091909190916101000a81548173ffffffffffffffffffffffffffffffffffffffff021916908373ffffffffffffffffffffffffffffffffffffffff1602179055506040518060c001604052803373ffffffffffffffffffffffffffffffffffffffff16815260200186815260200185815260200184815260200183815260200182815250600a60003373ffffffffffffffffffffffffffffffffffffffff1673ffffffffffffffffffffffffffffffffffffffff16815260200190815260200160002060008201518160000160006101000a81548173ffffffffffffffffffffffffffffffffffffffff021916908373ffffffffffffffffffffffffffffffffffffffff160217905550602082015181600101908161140a9190612860565b5060408201518160020155606082015181600301908161142a9190612860565b506080820151816004015560a082015181600501908161144a9190612860565b5090505060026040518060c001604052803373ffffffffffffffffffffffffffffffffffffffff16815260200187815260200186815260200185815260200184815260200183815250908060018154018082558091505060019003906000526020600020906006020160009091909190915060008201518160000160006101000a81548173ffffffffffffffffffffffffffffffffffffffff021916908373ffffffffffffffffffffffffffffffffffffffff16021790555060208201518160010190816115189190612860565b506040820151816002015560608201518160030190816115389190612860565b506080820151816004015560a08201518160050190816115589190612860565b5050505050505050565b6040518060c001604052803373ffffffffffffffffffffffffffffffffffffffff1681526020018681526020018581526020018481526020018381526020018281525060036000600754815260200190815260200160002060008201518160000160006101000a81548173ffffffffffffffffffffffffffffffffffffffff021916908373ffffffffffffffffffffffffffffffffffffffff16021790555060208201518160010190816116169190612860565b50604082015181600201908161162c9190612860565b5060608201518160030155608082015181600401908161164c9190612860565b5060a08201518160050190816116629190612860565b509050506040518060c001604052803373ffffffffffffffffffffffffffffffffffffffff16815260200186815260200185815260200184815260200183815260200182815250600960003373ffffffffffffffffffffffffffffffffffffffff1673ffffffffffffffffffffffffffffffffffffffff1681526020019081526020016000206000600754815260200190815260200160002060008201518160000160006101000a81548173ffffffffffffffffffffffffffffffffffffffff021916908373ffffffffffffffffffffffffffffffffffffffff16021790555060208201518160010190816117579190612860565b50604082015181600201908161176d9190612860565b5060608201518160030155608082015181600401908161178d9190612860565b5060a08201518160050190816117a39190612860565b50905050600760008154809291906117ba90612961565b919050555060016040518060c001604052803373ffffffffffffffffffffffffffffffffffffffff16815260200187815260200186815260200185815260200184815260200183815250908060018154018082558091505060019003906000526020600020906006020160009091909190915060008201518160000160006101000a81548173ffffffffffffffffffffffffffffffffffffffff021916908373ffffffffffffffffffffffffffffffffffffffff16021790555060208201518160010190816118899190612860565b50604082015181600201908161189f9190612860565b506060820151816003015560808201518160040190816118bf9190612860565b5060a08201518160050190816118d59190612860565b5050505050505050565b60008082815481106118f4576118f36129a9565b5b9060005260206000200160009054906101000a900473ffffffffffffffffffffffffffffffffffffffff1690508073ffffffffffffffffffffffffffffffffffffffff166108fc61194361045f565b9081150290604051600060405180830381858888f1935050505015801561196e573d6000803e3d6000fd5b505050565b6000600b54905090565b6006602052816000526040600020602052806000526040600020600091509150505481565b60606002805480602002602001604051908101604052809291908181526020016000905b82821015611c1857838290600052602060002090600602016040518060c00160405290816000820160009054906101000a900473ffffffffffffffffffffffffffffffffffffffff1673ffffffffffffffffffffffffffffffffffffffff1673ffffffffffffffffffffffffffffffffffffffff168152602001600182018054611a4f90612683565b80601f0160208091040260200160405190810160405280929190818152602001828054611a7b90612683565b8015611ac85780601f10611a9d57610100808354040283529160200191611ac8565b820191906000526020600020905b815481529060010190602001808311611aab57829003601f168201915b5050505050815260200160028201548152602001600382018054611aeb90612683565b80601f0160208091040260200160405190810160405280929190818152602001828054611b1790612683565b8015611b645780601f10611b3957610100808354040283529160200191611b64565b820191906000526020600020905b815481529060010190602001808311611b4757829003601f168201915b5050505050815260200160048201548152602001600582018054611b8790612683565b80601f0160208091040260200160405190810160405280929190818152602001828054611bb390612683565b8015611c005780601f10611bd557610100808354040283529160200191611c00565b820191906000526020600020905b815481529060010190602001808311611be357829003601f168201915b505050505081525050815260200190600101906119c6565b50505050905090565b6005602052816000526040600020602052806000526040600020600091509150505481565b6000819050919050565b611c5981611c46565b82525050565b6000602082019050611c746000830184611c50565b92915050565b6000604051905090565b600080fd5b600080fd5b611c9781611c46565b8114611ca257600080fd5b50565b600081359050611cb481611c8e565b92915050565b600060208284031215611cd057611ccf611c84565b5b6000611cde84828501611ca5565b91505092915050565b600073ffffffffffffffffffffffffffffffffffffffff82169050919050565b6000611d1282611ce7565b9050919050565b611d2281611d07565b82525050565b6000602082019050611d3d6000830184611d19565b92915050565b6000611d4e82611ce7565b9050919050565b611d5e81611d43565b82525050565b600081519050919050565b600082825260208201905092915050565b60005b83811015611d9e578082015181840152602081019050611d83565b60008484015250505050565b6000601f19601f8301169050919050565b6000611dc682611d64565b611dd08185611d6f565b9350611de0818560208601611d80565b611de981611daa565b840191505092915050565b600060c082019050611e096000830189611d55565b8181036020830152611e1b8188611dbb565b90508181036040830152611e2f8187611dbb565b9050611e3e6060830186611c50565b8181036080830152611e508185611dbb565b905081810360a0830152611e648184611dbb565b9050979650505050505050565b611e7a81611d43565b8114611e8557600080fd5b50565b600081359050611e9781611e71565b92915050565b600060208284031215611eb357611eb2611c84565b5b6000611ec184828501611e88565b91505092915050565b600060c082019050611edf6000830189611d55565b8181036020830152611ef18188611dbb565b9050611f006040830187611c50565b8181036060830152611f128186611dbb565b9050611f216080830185611c50565b81810360a0830152611f338184611dbb565b9050979650505050505050565b60008060408385031215611f5757611f56611c84565b5b6000611f6585828601611ca5565b9250506020611f7685828601611ca5565b9150509250929050565b600081519050919050565b600082825260208201905092915050565b6000819050602082019050919050565b611fb581611d43565b82525050565b600082825260208201905092915050565b6000611fd782611d64565b611fe18185611fbb565b9350611ff1818560208601611d80565b611ffa81611daa565b840191505092915050565b61200e81611c46565b82525050565b600060c08301600083015161202c6000860182611fac565b50602083015184820360208601526120448282611fcc565b9150506040830151848203604086015261205e8282611fcc565b91505060608301516120736060860182612005565b506080830151848203608086015261208b8282611fcc565b91505060a083015184820360a08601526120a58282611fcc565b9150508091505092915050565b60006120be8383612014565b905092915050565b6000602082019050919050565b60006120de82611f80565b6120e88185611f8b565b9350836020820285016120fa85611f9c565b8060005b85811015612136578484038952815161211785826120b2565b9450612122836120c6565b925060208a019950506001810190506120fe565b50829750879550505050505092915050565b6000602082019050818103600083015261216281846120d3565b905092915050565b6000806040838503121561218157612180611c84565b5b600061218f85828601611e88565b92505060206121a085828601611ca5565b9150509250929050565b600080fd5b600080fd5b7f4e487b7100000000000000000000000000000000000000000000000000000000600052604160045260246000fd5b6121ec82611daa565b810181811067ffffffffffffffff8211171561220b5761220a6121b4565b5b80604052505050565b600061221e611c7a565b905061222a82826121e3565b919050565b600067ffffffffffffffff82111561224a576122496121b4565b5b61225382611daa565b9050602081019050919050565b82818337600083830152505050565b600061228261227d8461222f565b612214565b90508281526020810184848401111561229e5761229d6121af565b5b6122a9848285612260565b509392505050565b600082601f8301126122c6576122c56121aa565b5b81356122d684826020860161226f565b91505092915050565b600080600080600060a086880312156122fb576122fa611c84565b5b600086013567ffffffffffffffff81111561231957612318611c89565b5b612325888289016122b1565b955050602061233688828901611ca5565b945050604086013567ffffffffffffffff81111561235757612356611c89565b5b612363888289016122b1565b935050606061237488828901611ca5565b925050608086013567ffffffffffffffff81111561239557612394611c89565b5b6123a1888289016122b1565b9150509295509295909350565b600080600080600060a086880312156123ca576123c9611c84565b5b600086013567ffffffffffffffff8111156123e8576123e7611c89565b5b6123f4888289016122b1565b955050602086013567ffffffffffffffff81111561241557612414611c89565b5b612421888289016122b1565b945050604061243288828901611ca5565b935050606086013567ffffffffffffffff81111561245357612452611c89565b5b61245f888289016122b1565b925050608086013567ffffffffffffffff8111156124805761247f611c89565b5b61248c888289016122b1565b9150509295509295909350565b600081519050919050565b600082825260208201905092915050565b6000819050602082019050919050565b600060c0830160008301516124dd6000860182611fac565b50602083015184820360208601526124f58282611fcc565b915050604083015161250a6040860182612005565b50606083015184820360608601526125228282611fcc565b91505060808301516125376080860182612005565b5060a083015184820360a086015261254f8282611fcc565b9150508091505092915050565b600061256883836124c5565b905092915050565b6000602082019050919050565b600061258882612499565b61259281856124a4565b9350836020820285016125a4856124b5565b8060005b858110156125e057848403895281516125c1858261255c565b94506125cc83612570565b925060208a019950506001810190506125a8565b50829750879550505050505092915050565b6000602082019050818103600083015261260c818461257d565b905092915050565b6000806040838503121561262b5761262a611c84565b5b600061263985828601611e88565b925050602061264a85828601611e88565b9150509250929050565b7f4e487b7100000000000000000000000000000000000000000000000000000000600052602260045260246000fd5b6000600282049050600182168061269b57607f821691505b6020821081036126ae576126ad612654565b5b50919050565b60008190508160005260206000209050919050565b60006020601f8301049050919050565b600082821b905092915050565b6000600883026127167fffffffffffffffffffffffffffffffffffffffffffffffffffffffffffffffff826126d9565b61272086836126d9565b95508019841693508086168417925050509392505050565b6000819050919050565b600061275d61275861275384611c46565b612738565b611c46565b9050919050565b6000819050919050565b61277783612742565b61278b61278382612764565b8484546126e6565b825550505050565b600090565b6127a0612793565b6127ab81848461276e565b505050565b5b818110156127cf576127c4600082612798565b6001810190506127b1565b5050565b601f821115612814576127e5816126b4565b6127ee846126c9565b810160208510156127fd578190505b612811612809856126c9565b8301826127b0565b50505b505050565b600082821c905092915050565b600061283760001984600802612819565b1980831691505092915050565b60006128508383612826565b9150826002028217905092915050565b61286982611d64565b67ffffffffffffffff811115612882576128816121b4565b5b61288c8254612683565b6128978282856127d3565b600060209050601f8311600181146128ca57600084156128b8578287015190505b6128c28582612844565b86555061292a565b601f1984166128d8866126b4565b60005b82811015612900578489015182556001820191506020850194506020810190506128db565b8683101561291d5784890151612919601f891682612826565b8355505b6001600288020188555050505b505050505050565b7f4e487b7100000000000000000000000000000000000000000000000000000000600052601160045260246000fd5b600061296c82611c46565b91507fffffffffffffffffffffffffffffffffffffffffffffffffffffffffffffffff820361299e5761299d612932565b5b600182019050919050565b7f4e487b7100000000000000000000000000000000000000000000000000000000600052603260045260246000fdfea264697066735822122078c545646a47d92162a20ad7a0e8797c0b0cf3fcc36326ea987938364a78589b64736f6c63430008110033",
  "linkReferences": {},
  "deployedLinkReferences": {}
}